:100000000C9462000C94F6000C948A000C948A0004
:100010000C948A000C948A000C948A000C948A0038
:100020000C948A000C9450010C948A000C948A0061
:100030000C948A000C948A000C948A000C948A0018
:100040000C941F060C948A000C94E8080C948A0007
:100050000C948A000C948A000C948A000C948A00F8
:100060000C948A000C948A000000000024002700F1
:100070002A0000000000250028002B0000000000DE
:1000800023002600290004040404040404040202DA
:100090000202020203030303030301020408102007
:1000A0004080010204081020010204081020000012
:1000B0000007000201000003040600000000000029
:1000C0000000390A11241FBECFEFD8E0DEBFCDBF3C
:1000D00011E0A0E0B1E0E2EAFBE102C005900D9280
:1000E000A037B107D9F713E0A0E7B1E001C01D9236
:1000F000A739B107E1F710E0C4ECD0E004C02297C3
:10010000FE010E94F80AC23CD107C9F70E948E077F
:100110000C94CF0D0C940000E8ECF1E080E090E04E
:100120008193019621E080309207D1F7089584E809
:1001300093E040E855E260E070E00E9410098DE035
:1001400061E00E94DB0682E060E00E94DB0683E063
:1001500060E00E94DB0684E061E00E94DB0685E04F
:1001600061E00E94DB0686E061E00E94DB0687E03A
:1001700061E00E94DB0683E161E00E94DB0683E030
:100180008093690081E08DBB1092C6011092F1024C
:100190001092C7010E948C001092F6021092F50294
:1001A000E0EBF0E080818460808380818C7F8083BD
:1001B00080818C7F8083E6EBF0E080818083E0E7C4
:1001C000F0E0808181608083789486E061E00E9425
:1001D000F90687E061E00E94F90684E061E00E9490
:1001E000F90685E061E00E94F90608951F920F92DA
:1001F0000FB60F9211241F932F933F934F935F934A
:100200006F937F938F939F93AF93BF93EF93FF93DE
:100210001091C70183E00E9445076091C601462FF7
:10022000552747FD509527E030E0241B350BAC01E6
:1002300002C0440F551F2A95E2F79A01212B209303
:10024000C7016F5F6093C6011092F4021092F3022F
:100250001092F6021092F502683081F48091F1025A
:10026000E82FFF27E7FDF095E853FE4F20838F5FCF
:100270008093F1021092C6011092C701FF91EF9195
:10028000BF91AF919F918F917F916F915F914F91AE
:100290003F912F911F910F900FBE0F901F901895B7
:1002A0001F920F920FB60F9211248F939F9386E0A7
:1002B0008093B2008091F3029091F40201969093A2
:1002C000F4028093F3028A3F910589F41092C601EB
:1002D0001092C7018091F5029091F60201969093D9
:1002E000F6028093F5021092F4021092F3029F91AD
:1002F0008F910F900FBE0F901F9018952F923F92E5
:100300004F925F926F927F928F929F92AF92BF9225
:10031000CF92DF92EF92FF920F931F93DF93CF93D1
:10032000CDB7DEB7A2970FB6F894DEBF0FBECDBF34
:10033000E090B001F090B1010091B2011091B301D1
:10034000EB86FC860D871E870091B4011091B501E4
:100350002091B6013091B7010F87188B298B3A8B0A
:100360002091B8013091B9014091BA015091BB017F
:100370002B8B3C8B4D8B5E8B8091BC019091BD0192
:10038000A091BE01B091BF018F8B988FA98FBA8FBA
:10039000E090C001F090C1010091C2011091C30131
:1003A000EB8EFC8E0D8F1E8FEF8EF8A209A31AA381
:1003B0001C012D0139014A01AF84B888C988DA8847
:1003C0000B851C852D853E850B831C832D833E83E9
:1003D00060E070E010C02F8E38A249A25AA213012B
:1003E000240135014601AB80BC80CD80DE802B83AB
:1003F0003C834D835E836431D0F4D201C1018625F4
:100400009725A825B9258A219B21AC21BD218225CC
:100410009325A425B525603108F050C029E939E7B6
:1004200042E85AE52F83388749875A87B4C0683233
:1004300098F4D401C3018A259B25AC25BD258225CE
:100440009325A425B52521EAE22E2BEEF22E29EDE7
:10045000022F2EE6122F3AC06C33E8F4D401C30108
:100460008A299B29AC29BD2982219321A421B52168
:10047000A40193012A213B214C215D21822B932B46
:10048000A42BB52B0CED1CEB2BE13FE80F83188759
:1004900029873A871FC0D401C3018A259B25AC2533
:1004A000BD2582259325A425B52526ED31EC42E610
:1004B0005AEC2F83388749875A870CC0F9E9EF2E09
:1004C000F9E7FF2EF2E80F2FFAE51F2FEF82F886EB
:1004D00009871A878B010F701070000F111F000F12
:1004E000111F00591E4F1A8309839B01235F3F4F41
:1004F0002F703070220F331F220F331F20593E4FB1
:100500008B01085F1F4F0F701070000F111F000F3D
:10051000111F00591E4FF901208131814281538101
:10052000F801E080F180028113812E253F254027CC
:100530005127E981FA81E080F180028113812E2523
:100540003F2540275127FB013296EF70F070EE0FE8
:10055000FF1FEE0FFF1FE059FE4FE080F180028188
:1005600013812E253F254027512779018A01EE0C62
:10057000FF1C001F111F222757FD239533274427F7
:100580005527E22AF32A042B152BE981FA81E08210
:10059000F182028313832B813C814D815E81F5E0E2
:1005A000220F331F441F551FFA95D1F7EB80FC80B3
:1005B0000D811E81EBE116950795F794E794EA9576
:1005C000D1F72E293F29402B512BEF8CF8A009A100
:1005D0001AA12E0D3F1D401F511FFB01EF70F0703F
:1005E000EE0FFF1FEE0FFF1FE059FE4FE080F1807E
:1005F000028113812E0D3F1D401F511F280F391FEF
:100600004A1F5B1F8F819885A985BA85280F391FDE
:100610004A1F5B1FD601C501FEE1880F991FAA1F63
:10062000BB1FFA95D1F7E2E0D694C794B794A7948C
:10063000EA95D1F7A82AB92ACA2ADB2A6F5F7F4F29
:100640006035710509F0C7CEEB84FC840D851E85ED
:100650002E0D3F1D401F511F2093B0013093B1015B
:100660004093B2015093B3018B819C81AD81BE81D7
:100670000F85188929893A89800F911FA21FB31FFE
:100680008093B4019093B501A093B601B093B701E4
:100690002B893C894D895E89A20EB31EC41ED51ECE
:1006A000A092B801B092B901C092BA01D092BB0138
:1006B0008F89988DA98DBA8D680E791E8A1E9B1E12
:1006C0006092BC017092BD018092BE019092BF0108
:1006D000EB8CFC8C0D8D1E8D2E0C3F1C401E511E74
:1006E0002092C0013092C1014092C2015092C301D8
:1006F000A2960FB6F894DEBF0FBECDBFCF91DF91AB
:100700001F910F91FF90EF90DF90CF90BF90AF902F
:100710009F908F907F906F905F904F903F902F9021
:10072000089581E093E2A5E4B7E68093B001909349
:10073000B101A093B201B093B30189E89BEAADEC9B
:10074000BFEE8093B4019093B501A093B601B0932E
:10075000B7018EEF9CEDAAEBB8E98093B8019093B6
:10076000B901A093BA01B093BB0186E794E5A2E377
:10077000B0E18093BC019093BD01A093BE01B09302
:10078000BF0180EF91EEA2EDB3EC8093C001909396
:10079000C101A093C201B093C3011092C501109290
:1007A000C4010895CF92DF92EF92FF920F931F93AF
:1007B000DF93CF930F92CDB7DEB7062F10E078010D
:1007C000F594E794F594E7942E2D0DC0E22FF0E018
:1007D000EE0FFF1FEE0FFF1FE059FE4F1082118238
:1007E000128213822F5F203188F320E016C0A22FDF
:1007F000B0E0FD01E059FE4FA80FB91F13963C91E0
:100800001397308312963C911297318311963C9145
:10081000119732833C9133832C5F261740F3C090AD
:10082000C401D090C501C60ED11CD092C501C092A2
:10083000C401603408F054C0009510950370107026
:10084000EE0CFF1CEE0CFF1C40E751E0E40EF51E21
:1008500098012F5F3F4F73E0220F331F7A95E1F726
:100860008FEF9FEFAFEFBFEF04C0880F991FAA1F54
:10087000BB1F2A95D2F7F701208131814281538134
:1008800082239323A423B52353E0000F111F5A950D
:10089000E1F720E830E040E050E004C0220F331FD1
:1008A000441F551F0A95D2F7822B932BA42BB52BEF
:1008B00080839183A283B383683390F4C601A0E060
:1008C000B0E043E0880F991FAA1FBB1F4A95D1F7DC
:1008D0008093AC019093AD01A093AE01B093AF01B2
:1008E00069830E947E0169816853683008F5E0E7FA
:1008F000F1E0119211921192119241E0EC3AF40759
:10090000C1F78091C4019091C501A0E0B0E033E04F
:10091000880F991FAA1FBB1F3A95D1F78093AC018E
:100920009093AD01A093AE01B093AF010E947E0100
:100930000F90CF91DF911F910F91FF90EF90DF907B
:10094000CF900895E0EBF1E08081938190838383E1
:100950008181928191838283349681E0E43CF8071F
:1009600099F708950F931F93CF93DF93EC018B01B9
:100970000E9491030DC0B8010134110514F060E428
:1009800070E0CE010E94D20300541040C05CDF4FE3
:1009900017FFF1CF0E94A204DF91CF911F910F9119
:1009A0000895CF93DF938091F102E82FFF27E7FDB1
:1009B000F095E953FE4F9081943B09F089C08A304D
:1009C0000CF482C088EC91E060E071E00E94B20417
:1009D0008DB79EB78C970FB6F8949EBF0FBE8DBF94
:1009E000EDB7FEB73196C8ECD2E0ADB7BEB7129600
:1009F000DC93CE93119780E091E093838283809182
:100A0000B001848315828091B10186831782809121
:100A1000B201808711868091B3018287138680910D
:100A2000B401848715868091B501868717868091E9
:100A3000B601808B118A8091B701828B138A8091D5
:100A4000B801848B158A8091B901868B178A8091B1
:100A5000BA01808F118E8091BB01828F138E80919D
:100A6000BC01848F158E8091BD01868F178E809179
:100A7000BE0180A311A28091BF0182A313A2809125
:100A8000C00184A315A28091C10186A317A2809101
:100A9000C20180A711A68091C30182A713A60E945C
:100AA000FC0A8DB79EB78C960FB6F8949EBF0FBE0A
:100AB0008DBF84E893E061E571E00E94CD0784E892
:100AC00093E0BE010E94A7080E948C001092F102E0
:100AD0008091F5029091F6028932910574F084E8D4
:100AE00093E067E571E00E94A7081092F602109269
:100AF000F5020E948C001092F10284E893E00E94BB
:100B0000FF09882309F494C084E893E00E94150A41
:100B10008093F2028F34C9F484E060E00E94F90609
:100B200086E060E00E94F90664EF71E080E090E00A
:100B30000E94750686E061E00E94F90684E893E071
:100B40006DE571E00E94A7086FC0843451F484E021
:100B500060E00E94F90687E060E00E94F90683E108
:100B600064C08E3459F484E061E00E94F90687E0A5
:100B700061E00E94F90683E160E058C0823501F52A
:100B800085E060E00E94F90668EC70E080E090E0AB
:100B90000E94750685E061E00E94F90668EC70E04D
:100BA00080E090E00E94750685E060E00E94F90612
:100BB00068EC70E080E090E00E94750685E035C04A
:100BC0008635B1F584E060E00E94F9066CE271E0E0
:100BD00080E090E00E94750684E061E00E94F906E2
:100BE00068EC70E080E090E00E94750684E060E0D0
:100BF0000E94F9066CE271E080E090E00E947506C8
:100C000084E061E00E94F90668EC70E080E090E02A
:100C10000E94750684E060E00E94F9066CE271E0D3
:100C200080E090E00E94750684E061E00E94F90691
:100C300084E190E00E949706DF91CF9108951F9282
:100C40000F920FB60F9211242F933F938F939F9380
:100C5000AF93BF938091FB029091FC02A091FD02A3
:100C6000B091FE023091FF020196A11DB11D232F0C
:100C70002D5F2D3720F02D570196A11DB11D20931A
:100C8000FF028093FB029093FC02A093FD02B093BD
:100C9000FE028091F7029091F802A091F902B091C2
:100CA000FA020196A11DB11D8093F7029093F802FC
:100CB000A093F902B093FA02BF91AF919F918F91E7
:100CC0003F912F910F900FBE0F901F9018958FB7E7
:100CD000F8942091FB023091FC024091FD0250916A
:100CE000FE028FBFB901CA010895AF92BF92CF92A1
:100CF000DF92EF92FF920F931F937B018C010E9472
:100D000067065B016C010E9467066A197B098C0902
:100D10009D09E616F70608071907A8F71F910F9116
:100D2000FF90EF90DF90CF90BF90AF900895019724
:100D300039F0880F991F880F991F02970197F1F7D3
:100D40000895789484B5826084BD84B5816084BD43
:100D500085B5826085BD85B5816085BDEEE6F0E034
:100D6000808181608083E1E8F0E08081826080831F
:100D7000808181608083E0E8F0E080818160808311
:100D8000E1EBF0E0808184608083E0EBF0E0808143
:100D900081608083EAE7F0E08081846080838081E5
:100DA000826080838081816080838081806880838D
:100DB0001092C100089590E0FC01E656FF4F249187
:100DC000FC01EA57FF4FE491EE2391F0F0E0EE0FC3
:100DD000FF1FE859FF4F85919491DC01662329F4A8
:100DE0008C91209582238C9308958C91822B8C93E7
:100DF000089590E0FC01E255FF4F2491FC01E65676
:100E0000FF4F44918A579F4FFC018491882309F436
:100E10003BC0222331F1233021F4909180009F7751
:100E200005C0243031F4909180009F7D9093800024
:100E300018C0213019F494B59F7704C0223021F4F2
:100E400094B59F7D94BD0DC0263021F49091B000E3
:100E50009F7705C0273029F49091B0009F7D909333
:100E6000B000E82FF0E0EE0FFF1FEE58FF4F259186
:100E70003491D901662329F48C91409584238C9375
:100E800008958C91842B8C93089590E0FC01E25599
:100E9000FF4F2491FC01E656FF4F44918A579F4F24
:100EA000FC0184918823B1F1222331F1233021F414
:100EB000909180009F7705C0243031F4909180009C
:100EC0009F7D9093800018C0213019F494B59F77CE
:100ED00004C0223021F494B59F7D94BD0DC026300E
:100EE00021F49091B0009F7705C0273029F49091AC
:100EF000B0009F7D9093B000E82FF0E0EE0FFF1F51
:100F0000E458FF4F25913491D9018C91842321E03D
:100F100030E011F420E030E0C90108950E94A106FC
:100F20000E9497000E94D104FDCF0F931F93CF938F
:100F3000DF93EC01062F172F07C0E881F98101909C
:100F4000F081E02DCE010995F80161918F016623B2
:100F5000A1F7DF91CF911F910F910895EF92FF922A
:100F60000F931F93CF93DF937C01EB018A010BC09A
:100F70006991D701ED91FC910190F081E02DC701BD
:100F80000995015010400115110591F7DF91CF919E
:100F90001F910F91FF90EF900895DC01ED91FC916E
:100FA0000280F381E02D099508956F927F928F92D0
:100FB0009F92AF92BF92CF92DF92EF92FF920F93E8
:100FC0001F93DF93CF93CDB7DEB7A0970FB6F894FA
:100FD000DEBF0FBECDBF5C01CB01BA01611571054B
:100FE0008105910551F4C50140E350E060E070E0F7
:100FF00020E030E00E945A0848C06E010894C11CED
:10100000D11CEE24FF248701622E772488249924A2
:10101000A40193010E94A50AF60161936F0108944F
:10102000E11CF11C011D111DB901CA0161157105F9
:101030008105910569F7D801C7010197A109B10997
:101040006E010894C11CD11CC80ED91E19C0F6012E
:1010500040814A3010F4405D01C0495C552747FD8E
:101060005095652F752FC50120E030E00E945A0889
:101070000894E108F108010911090894C108D10890
:10108000E114F1040105110511F7A0960FB6F894CB
:10109000DEBF0FBECDBFCF91DF911F910F91FF90AB
:1010A000EF90DF90CF90BF90AF909F908F907F9008
:1010B0006F900895EF92FF920F931F93CF93DF935A
:1010C000EC017A018B012115310541F4E881F981A8
:1010D0000190F081E02D642F09951BC02A30310565
:1010E000B1F477FF10C04DE250E060E070E020E026
:1010F00030E00E945A0810950095F094E094E11CAD
:10110000F11C011D111DCE01B801A7012AE00E94AA
:10111000D507DF91CF911F910F91FF90EF90089528
:10112000CF93DF93EC014DE050E060E070E020E011
:1011300030E00E945A08CE014AE050E060E070E0E2
:1011400020E030E00E945A08DF91CF910895CF93BC
:10115000DF93EC010E94CD07CE010E949008DF9141
:10116000CF910895FC01A085B18521898C9190E0F3
:10117000022E02C0959587950A94E2F780FFF6CF7C
:101180000484F585E02D608308951F93CF93DF934A
:10119000182F9B01EB01C058DF4FE881F981CF0187
:1011A000019660E870E00E94920AAC01D901AE5746
:1011B000BF4F8D919C9111974817590729F0E20F65
:1011C000F31F108359834883DF91CF911F910895B6
:1011D0001F920F920FB60F9211242F933F934F93AC
:1011E0005F936F937F938F939F93AF93BF93EF938F
:1011F000FF938091C60060E073E00E94C508FF91F4
:10120000EF91BF91AF919F918F917F916F915F917E
:101210004F913F912F910F900FBE0F901F901895F7
:101220008F929F92AF92BF92DF92EF92FF920F93B5
:101230001F93CF93DF93EC017A018B01413482E459
:1012400058078FE0680780E078070CF07DC060E801
:1012500074E88EE190E0A80197010E94C70A21502E
:10126000304040405040CA01B90122E030E040E047
:1012700050E00E94C70A49015A01209530954095D7
:10128000509594E0220F331F441F551F9A95D1F7B4
:1012900060E074E284EF90E00E94C70ACA01B901DD
:1012A0002FEF30E040E050E00E94730AA801970160
:1012B0000E94C70AC90181509F4F181619061CF4D5
:1012C000D22EDA9403C0DD24D394D21A60E079E000
:1012D0008DE390E0A80197010E94C70A2150304099
:1012E00040405040CA01B90122E030E040E050E007
:1012F0000E94C70A209530954095509583E0220FB3
:10130000331F441F551F8A95D1F760E074E284EFC4
:1013100090E00E94C70ACA01B9012FEF30E040E017
:1013200050E00E94730AA80197010E94C70AC901F0
:1013300081509F4F181619061CF4822F815002C04D
:1013400081E0821B8D1500F5E885F98581E090E04C
:101350000A8802C0880F991F0A94E2F7808360E030
:1013600079E08DE390E0A80197010E94C70A21501F
:10137000304040405040CA01B90122E030E040E036
:1013800050E00E94C70A04C0E885F98510829401E4
:10139000EC81FD813083EE81FF812083EA85FB852E
:1013A000408181E090E09C010E8402C0220F331F37
:1013B0000A94E2F7422B4083EA85FB8540819C0139
:1013C0000F8402C0220F331F0A94E2F7422B40839E
:1013D000EA85FB852081088802C0880F991F0A943E
:1013E000E2F7282B2083DF91CF911F910F91FF907F
:1013F000EF90DF90BF90AF909F908F900895FC0189
:1014000022813381F901E058FF4F8081918180581A
:101410009F4F2E573F4FF90120813181821B930B43
:1014200060E870E00E94920A0895DC0112962D9106
:101430003C911397F901EE57FF4F80819181D901BB
:10144000A058BF4F4D915C9111974817590769F00B
:10145000280F391FD9012C91019660E870E00E9495
:10146000920A9183808330E002C02FEF3FEFC901E1
:1014700008958AE691E0909385038093840380E049
:1014800093E0909387038093860385EC90E090939C
:1014900089038093880384EC90E090938B0380937E
:1014A0008A0380EC90E090938D0380938C0381EC11
:1014B00090E090938F0380938E0386EC90E090935E
:1014C00091038093900384E08093920383E0809360
:1014D000930387E08093940385E08093950381E0F4
:1014E000809396030895629FD001739FF001829FBD
:1014F000E00DF11D649FE00DF11D929FF00D839FA3
:10150000F00D749FF00D659FF00D9927729FB00D3F
:10151000E11DF91F639FB00DE11DF91FBD01CF0152
:101520001124089597FB092E07260AD077FD04D0D1
:1015300049D006D000201AF4709561957F4F089528
:10154000F6F7909581959F4F0895A1E21A2EAA1B58
:10155000BB1BFD010DC0AA1FBB1FEE1FFF1FA21763
:10156000B307E407F50720F0A21BB30BE40BF50B60
:10157000661F771F881F991F1A9469F760957095E9
:10158000809590959B01AC01BD01CF01089597FB1B
:10159000092E05260ED057FD04D0D7DF0AD0001C37
:1015A00038F450954095309521953F4F4F4F5F4F00
:1015B0000895F6F790958095709561957F4F8F4FC0
:1015C0009F4F0895AA1BBB1B51E107C0AA1FBB1F59
:1015D000A617B70710F0A61BB70B881F991F5A95BF
:1015E000A9F780959095BC01CD010895EE0FFF1FDE
:1015F0000590F491E02D0994AEE0B0E0E2E0FBE06C
:101600000C94A60D0D891E8986E08C831A830983AC
:101610008FEF9FE79E838D839E01275E3F4FCE0114
:1016200001966F89788DA9010E941F0BEF81F885C3
:10163000E00FF11F10822E96E4E00C94C20DACE096
:10164000B0E0E5E2FBE00C94990D6C012B018A01FE
:10165000FC0117821682838181FD03C02FEF3FEFCB
:10166000C2C14E010894811C911C6FE3362EF60115
:101670009381F20193FD859193FF81912F0188233E
:1016800009F4AEC1853239F493FD859193FF8191C0
:101690002F01853229F490E0B6010E940E0DE7CFAC
:1016A000EE24FF2420E02032B0F48B3269F08C323B
:1016B00028F4803251F0833271F40BC08D3239F04E
:1016C000803349F421602CC02260246029C0286046
:1016D00027C0206125C027FD2CC0382F30533A3059
:1016E00098F426FF08C08E2D880FE82EEE0CEE0C25
:1016F000E80EE30E15C08F2D880FF82EFF0CFF0C9F
:10170000F80EF30E20620CC08E3221F426FD68C163
:10171000206406C08C3611F4206802C0883649F473
:10172000F20193FD859193FF81912F01882309F0A8
:10173000BACF982F9554933018F09052933020F4EC
:101740000C5F1F4F39820DC0833631F0833771F043
:10175000833509F058C01EC0F801808189830E5F6F
:101760001F4F540151E0652E712C12C0F801A0806A
:10177000B18026FD03C06FEF7FEF02C06E2D70E0D9
:101780000E5F1F4FC5012C870E94030D3C012C8565
:101790002F7713C0F801A080B18026FD03C06FEF42
:1017A0007FEF02C06E2D70E00E5F1F4FC5012C87CA
:1017B0000E94F80C3C012C85206823FF09C01FC043
:1017C00080E290E0B6012C870E940E0DFA942C85E1
:1017D0008F2D90E06816790698F311C0F50127FD6A
:1017E000859127FF81915F0190E0B6012C870E94CF
:1017F0000E0D2C85F110FA9408946108710861149B
:10180000710461F7EAC0843611F0893651F527FF7B
:1018100008C0F80160817181828193810C5F1F4F44
:101820000AC0F80140815181BA01882777FD80956F
:10183000982F0E5F1F4F4FE6B42EB22297FF09C0BC
:1018400090958095709561957F4F8F4F9F4FF0E8F1
:10185000BF2AA4012AE030E00E943A0D782E7818C1
:1018600043C0853731F43FEEB32EB2222AE030E098
:1018700023C099EFB92EB2228F3661F0803720F461
:10188000883509F0ADC012C0803739F0883709F0CB
:10189000A7C005C028E030E00FC020E1B22AB4FEA6
:1018A00002C084E0B82A20E130E006C0B4FE02C0E5
:1018B000E6E0BE2A20E132E0B7FE08C0F801608110
:1018C0007181828193810C5F1F4F07C0F801608195
:1018D000718180E090E00E5F1F4FA4010E943A0DDD
:1018E000782E7818FFE7BF22B6FE0BC02EEFB2228B
:1018F0007E1438F4B4FE07C0B2FC05C08FEEB822E7
:1019000002C0A72C01C0AE2C8B2DB4FE0DC0FE0171
:10191000E70DF11D9081903319F4E9EEBE2207C066
:10192000A394B2FE04C002C0867809F0A3946B2C85
:10193000B3FC14C0B0FE0FC0AF1410F0E72C0BC006
:10194000E72CEF0CEA18AF2C06C080E290E0B6015D
:101950000E940E0DA394AF14C0F304C0AF1410F492
:10196000FA1801C0FF2464FE0FC080E390E0B601C6
:101970000E940E0D62FE1DC061FC03C088E790E06E
:101980000EC088E590E00BC0862D867891F061FE50
:1019900002C08BE201C080E2B7FC8DE290E0B601AC
:1019A0000E940E0D06C080E390E0B6010E940E0D6D
:1019B000EA947E14C0F37A94F401E70DF11D80815E
:1019C00090E0B6010E940E0D7720A9F706C080E2D4
:1019D00090E0B6010E940E0DFA94FF20C1F747CEA9
:1019E000F60126813781C9012C96E1E10C94B50DF1
:1019F000FC010590615070400110D8F780959095DA
:101A00008E0F9F1F0895FC016150704001900110DE
:101A1000D8F7809590958E0F9F1F08950F931F9371
:101A2000CF93DF938C01EB018B8181FF1BC082FF81
:101A30000DC02E813F818C819D812817390764F468
:101A4000E881F9810193F983E88306C0E885F98587
:101A5000802F0995009731F48E819F8101969F8395
:101A60008E8302C00FEF1FEFC801DF91CF911F914E
:101A70000F910895FA01AA27283051F1203181F100
:101A8000E8946F936E7F6E5F7F4F8F4F9F4FAF4F86
:101A9000B1E03ED0B4E03CD0670F781F891F9A1F99
:101AA000A11D680F791F8A1F911DA11D6A0F711D4D
:101AB000811D911DA11D20D009F468943F912AE059
:101AC000269F11243019305D3193DEF6CF01089541
:101AD000462F4770405D4193B3E00FD0C9F7F6CF72
:101AE000462F4F70405D4A3318F0495D31FD40523A
:101AF000419302D0A9F7EACFB4E0A69597958795D0
:101B000077956795BA95C9F70097610571050895AE
:101B10009B01AC010A2E069457954795379527955A
:101B2000BA95C9F7620F731F841F951FA01D0895F2
:101B30002F923F924F925F926F927F928F929F92DD
:101B4000AF92BF92CF92DF92EF92FF920F931F93CB
:101B5000CF93DF93CDB7DEB7CA1BDB0B0FB6F8947C
:101B6000DEBF0FBECDBF09942A88398848885F84BC
:101B70006E847D848C849B84AA84B984C884DF802D
:101B8000EE80FD800C811B81AA81B981CE0FD11D11
:101B90000FB6F894DEBF0FBECDBFED010895F894E7
:021BA000FFCF75
:101BA20025303258253032582530325825303258B7
:101BB20025303258253032582530325825303258A7
:101BC2002530325825303258253032582530325897
:101BD2002530325825303258253032582530325887
:101BE2002530325825303258253032582530325877
:101BF20000484153482B00414C495645004F50453F
:101C02004E414B434B0000000000B2089507AE075F
:00000001FF
